{
  "_format": "hh-sol-artifact-1",
  "contractName": "TokenEntryPoint",
  "sourceName": "contracts/accounts/TokenEntryPoint.sol",
  "abi": [
    {
      "inputs": [
        {
          "internalType": "contract INonceManager",
          "name": "anEntryPoint",
          "type": "address"
        }
      ],
      "stateMutability": "nonpayable",
      "type": "constructor"
    },
    {
      "anonymous": false,
      "inputs": [
        {
          "indexed": false,
          "internalType": "address",
          "name": "previousAdmin",
          "type": "address"
        },
        {
          "indexed": false,
          "internalType": "address",
          "name": "newAdmin",
          "type": "address"
        }
      ],
      "name": "AdminChanged",
      "type": "event"
    },
    {
      "anonymous": false,
      "inputs": [
        {
          "indexed": true,
          "internalType": "address",
          "name": "beacon",
          "type": "address"
        }
      ],
      "name": "BeaconUpgraded",
      "type": "event"
    },
    {
      "anonymous": false,
      "inputs": [
        {
          "indexed": false,
          "internalType": "uint8",
          "name": "version",
          "type": "uint8"
        }
      ],
      "name": "Initialized",
      "type": "event"
    },
    {
      "anonymous": false,
      "inputs": [
        {
          "indexed": true,
          "internalType": "address",
          "name": "previousOwner",
          "type": "address"
        },
        {
          "indexed": true,
          "internalType": "address",
          "name": "newOwner",
          "type": "address"
        }
      ],
      "name": "OwnershipTransferred",
      "type": "event"
    },
    {
      "anonymous": false,
      "inputs": [
        {
          "indexed": true,
          "internalType": "address",
          "name": "implementation",
          "type": "address"
        }
      ],
      "name": "Upgraded",
      "type": "event"
    },
    {
      "inputs": [
        {
          "internalType": "address",
          "name": "sender",
          "type": "address"
        },
        {
          "internalType": "uint192",
          "name": "key",
          "type": "uint192"
        }
      ],
      "name": "getNonce",
      "outputs": [
        {
          "internalType": "uint256",
          "name": "nonce",
          "type": "uint256"
        }
      ],
      "stateMutability": "view",
      "type": "function"
    },
    {
      "inputs": [
        {
          "components": [
            {
              "internalType": "address",
              "name": "sender",
              "type": "address"
            },
            {
              "internalType": "uint256",
              "name": "nonce",
              "type": "uint256"
            },
            {
              "internalType": "bytes",
              "name": "initCode",
              "type": "bytes"
            },
            {
              "internalType": "bytes",
              "name": "callData",
              "type": "bytes"
            },
            {
              "internalType": "uint256",
              "name": "callGasLimit",
              "type": "uint256"
            },
            {
              "internalType": "uint256",
              "name": "verificationGasLimit",
              "type": "uint256"
            },
            {
              "internalType": "uint256",
              "name": "preVerificationGas",
              "type": "uint256"
            },
            {
              "internalType": "uint256",
              "name": "maxFeePerGas",
              "type": "uint256"
            },
            {
              "internalType": "uint256",
              "name": "maxPriorityFeePerGas",
              "type": "uint256"
            },
            {
              "internalType": "bytes",
              "name": "paymasterAndData",
              "type": "bytes"
            },
            {
              "internalType": "bytes",
              "name": "signature",
              "type": "bytes"
            }
          ],
          "internalType": "struct UserOperation",
          "name": "userOp",
          "type": "tuple"
        }
      ],
      "name": "getUserOpHash",
      "outputs": [
        {
          "internalType": "bytes32",
          "name": "",
          "type": "bytes32"
        }
      ],
      "stateMutability": "view",
      "type": "function"
    },
    {
      "inputs": [
        {
          "components": [
            {
              "internalType": "address",
              "name": "sender",
              "type": "address"
            },
            {
              "internalType": "uint256",
              "name": "nonce",
              "type": "uint256"
            },
            {
              "internalType": "bytes",
              "name": "initCode",
              "type": "bytes"
            },
            {
              "internalType": "bytes",
              "name": "callData",
              "type": "bytes"
            },
            {
              "internalType": "uint256",
              "name": "callGasLimit",
              "type": "uint256"
            },
            {
              "internalType": "uint256",
              "name": "verificationGasLimit",
              "type": "uint256"
            },
            {
              "internalType": "uint256",
              "name": "preVerificationGas",
              "type": "uint256"
            },
            {
              "internalType": "uint256",
              "name": "maxFeePerGas",
              "type": "uint256"
            },
            {
              "internalType": "uint256",
              "name": "maxPriorityFeePerGas",
              "type": "uint256"
            },
            {
              "internalType": "bytes",
              "name": "paymasterAndData",
              "type": "bytes"
            },
            {
              "internalType": "bytes",
              "name": "signature",
              "type": "bytes"
            }
          ],
          "internalType": "struct UserOperation[]",
          "name": "ops",
          "type": "tuple[]"
        },
        {
          "internalType": "address payable",
          "name": "beneficiary",
          "type": "address"
        }
      ],
      "name": "handleOps",
      "outputs": [],
      "stateMutability": "nonpayable",
      "type": "function"
    },
    {
      "inputs": [
        {
          "internalType": "uint192",
          "name": "key",
          "type": "uint192"
        }
      ],
      "name": "incrementNonce",
      "outputs": [],
      "stateMutability": "nonpayable",
      "type": "function"
    },
    {
      "inputs": [
        {
          "internalType": "address",
          "name": "anOwner",
          "type": "address"
        },
        {
          "internalType": "address",
          "name": "aPaymaster",
          "type": "address"
        },
        {
          "internalType": "address[]",
          "name": "addresses",
          "type": "address[]"
        }
      ],
      "name": "initialize",
      "outputs": [],
      "stateMutability": "nonpayable",
      "type": "function"
    },
    {
      "inputs": [
        {
          "internalType": "address",
          "name": "",
          "type": "address"
        },
        {
          "internalType": "uint192",
          "name": "",
          "type": "uint192"
        }
      ],
      "name": "nonceSequenceNumber",
      "outputs": [
        {
          "internalType": "uint256",
          "name": "",
          "type": "uint256"
        }
      ],
      "stateMutability": "view",
      "type": "function"
    },
    {
      "inputs": [],
      "name": "owner",
      "outputs": [
        {
          "internalType": "address",
          "name": "",
          "type": "address"
        }
      ],
      "stateMutability": "view",
      "type": "function"
    },
    {
      "inputs": [],
      "name": "paymaster",
      "outputs": [
        {
          "internalType": "address",
          "name": "",
          "type": "address"
        }
      ],
      "stateMutability": "view",
      "type": "function"
    },
    {
      "inputs": [],
      "name": "proxiableUUID",
      "outputs": [
        {
          "internalType": "bytes32",
          "name": "",
          "type": "bytes32"
        }
      ],
      "stateMutability": "view",
      "type": "function"
    },
    {
      "inputs": [],
      "name": "renounceOwnership",
      "outputs": [],
      "stateMutability": "nonpayable",
      "type": "function"
    },
    {
      "inputs": [
        {
          "internalType": "address",
          "name": "newOwner",
          "type": "address"
        }
      ],
      "name": "transferOwnership",
      "outputs": [],
      "stateMutability": "nonpayable",
      "type": "function"
    },
    {
      "inputs": [
        {
          "internalType": "address",
          "name": "newPaymaster",
          "type": "address"
        }
      ],
      "name": "updatePaymaster",
      "outputs": [],
      "stateMutability": "nonpayable",
      "type": "function"
    },
    {
      "inputs": [
        {
          "internalType": "address[]",
          "name": "addresses",
          "type": "address[]"
        }
      ],
      "name": "updateWhitelist",
      "outputs": [],
      "stateMutability": "nonpayable",
      "type": "function"
    },
    {
      "inputs": [
        {
          "internalType": "address",
          "name": "newImplementation",
          "type": "address"
        }
      ],
      "name": "upgradeTo",
      "outputs": [],
      "stateMutability": "nonpayable",
      "type": "function"
    },
    {
      "inputs": [
        {
          "internalType": "address",
          "name": "newImplementation",
          "type": "address"
        },
        {
          "internalType": "bytes",
          "name": "data",
          "type": "bytes"
        }
      ],
      "name": "upgradeToAndCall",
      "outputs": [],
      "stateMutability": "payable",
      "type": "function"
    }
  ],
  "bytecode": "0x60c0604052306080523480156200001557600080fd5b5060405162002be838038062002be8833981016040819052620000389162000117565b6001600160a01b03811660a0526200004f62000056565b5062000149565b600054610100900460ff1615620000c35760405162461bcd60e51b815260206004820152602760248201527f496e697469616c697a61626c653a20636f6e747261637420697320696e697469604482015266616c697a696e6760c81b606482015260840160405180910390fd5b60005460ff9081161462000115576000805460ff191660ff9081179091556040519081527f7f26b83ff96e1f2b6a682f133852f6798a09c465da95921460cefb38474024989060200160405180910390a15b565b6000602082840312156200012a57600080fd5b81516001600160a01b03811681146200014257600080fd5b9392505050565b60805160a051612a5d6200018b60003960006104e4015260008181610562015281816105a20152818161063e0152818161067e01526107110152612a5d6000f3fe6080604052600436106100e85760003560e01c80634f1ef2861161008a5780638da5cb5b116100595780638da5cb5b14610269578063a619353114610287578063daf6a3f6146102a7578063f2fde38b146102c757600080fd5b80634f1ef2861461020c57806352d1902d1461021f578063715018a61461023457806377a24f361461024957600080fd5b80631fad948c116100c65780631fad948c1461018c57806335377214146101ac57806335567e1a146101cc5780633659cfe6146101ec57600080fd5b80630bd28e3b146100ed57806316e4cbf91461010f5780631b2e01b814610146575b600080fd5b3480156100f957600080fd5b5061010d610108366004611ce6565b6102e7565b005b34801561011b57600080fd5b5060fc546001600160a01b03165b6040516001600160a01b0390911681526020015b60405180910390f35b34801561015257600080fd5b5061017e610161366004611d21565b60fd60209081526000928352604080842090915290825290205481565b60405190815260200161013d565b34801561019857600080fd5b5061010d6101a7366004611da1565b6102f2565b3480156101b857600080fd5b5061010d6101c7366004611df7565b610430565b3480156101d857600080fd5b5061017e6101e7366004611d21565b6104b3565b3480156101f857600080fd5b5061010d610207366004611e38565b610558565b61010d61021a366004611f18565b610634565b34801561022b57600080fd5b5061017e610704565b34801561024057600080fd5b5061010d6107b7565b34801561025557600080fd5b5061010d610264366004611f67565b6107cb565b34801561027557600080fd5b506065546001600160a01b0316610129565b34801561029357600080fd5b5061017e6102a2366004611fcb565b6108b5565b3480156102b357600080fd5b5061010d6102c2366004611e38565b6108f7565b3480156102d357600080fd5b5061010d6102e2366004611e38565b610963565b6102ef6109d9565b50565b6102fa610a33565b8161035b5760405162461bcd60e51b815260206004820152602660248201527f41413432206e65656473206174206c65617374206f6e652075736572206f70656044820152653930ba34b7b760d11b60648201526084015b60405180910390fd5b8160005b81811015610420573685858381811061037a5761037a612006565b905060200281019061038c919061201c565b905080356020820135604081901c906103a6848484610a8c565b6103b08484610af3565b6103bb848483610e09565b6103c484610eeb565b6104118360006103d7606088018861203d565b8080601f01602080910402602001604051908101604052809392919081815260200183838082843760009201919091525061103492505050565b8460010194505050505061035f565b505061042b60018055565b505050565b6104386109d9565b60ff805490600061044883612083565b919050555060005b8181101561042b5760ff54610100600085858581811061047257610472612006565b90506020020160208101906104879190611e38565b6001600160a01b03168152602081019190915260400160002055806104ab81612083565b915050610450565b604051631aab3f0d60e11b81526001600160a01b0383811660048301526001600160c01b03831660248301526000917f0000000000000000000000000000000000000000000000000000000000000000909116906335567e1a90604401602060405180830381865afa15801561052d573d6000803e3d6000fd5b505050506040513d601f19601f8201168201806040525081019061055191906120aa565b9392505050565b6001600160a01b037f00000000000000000000000000000000000000000000000000000000000000001630036105a05760405162461bcd60e51b8152600401610352906120c3565b7f00000000000000000000000000000000000000000000000000000000000000006001600160a01b03166105e96000805160206129e1833981519152546001600160a01b031690565b6001600160a01b03161461060f5760405162461bcd60e51b81526004016103529061210f565b610618816102e7565b604080516000808252602082019092526102ef918391906110aa565b6001600160a01b037f000000000000000000000000000000000000000000000000000000000000000016300361067c5760405162461bcd60e51b8152600401610352906120c3565b7f00000000000000000000000000000000000000000000000000000000000000006001600160a01b03166106c56000805160206129e1833981519152546001600160a01b031690565b6001600160a01b0316146106eb5760405162461bcd60e51b81526004016103529061210f565b6106f4826102e7565b610700828260016110aa565b5050565b6000306001600160a01b037f000000000000000000000000000000000000000000000000000000000000000016146107a45760405162461bcd60e51b815260206004820152603860248201527f555550535570677261646561626c653a206d757374206e6f742062652063616c60448201527f6c6564207468726f7567682064656c656761746563616c6c00000000000000006064820152608401610352565b506000805160206129e183398151915290565b6107bf6109d9565b6107c96000611215565b565b600054610100900460ff16158080156107eb5750600054600160ff909116105b806108055750303b158015610805575060005460ff166001145b6108215760405162461bcd60e51b81526004016103529061215b565b6000805460ff191660011790558015610844576000805461ff0019166101001790555b61084c611267565b610854611296565b61085e83836112c5565b6108688585611397565b80156108ae576000805461ff0019169055604051600181527f7f26b83ff96e1f2b6a682f133852f6798a09c465da95921460cefb38474024989060200160405180910390a15b5050505050565b60006108c082611489565b6040805160208101929092523090820152466060820152608001604051602081830303815290604052805190602001209050919050565b6108ff6109d9565b803b6109415760405162461bcd60e51b815260206004820152601160248201527034b73b30b634b2103830bcb6b0b9ba32b960791b6044820152606401610352565b60fc80546001600160a01b0319166001600160a01b0392909216919091179055565b61096b6109d9565b6001600160a01b0381166109d05760405162461bcd60e51b815260206004820152602660248201527f4f776e61626c653a206e6577206f776e657220697320746865207a65726f206160448201526564647265737360d01b6064820152608401610352565b6102ef81611215565b6065546001600160a01b031633146107c95760405162461bcd60e51b815260206004820181905260248201527f4f776e61626c653a2063616c6c6572206973206e6f7420746865206f776e65726044820152606401610352565b600260015403610a855760405162461bcd60e51b815260206004820152601f60248201527f5265656e7472616e637947756172643a207265656e7472616e742063616c6c006044820152606401610352565b6002600155565b6000610a9883836104b3565b905083602001358114610aed5760405162461bcd60e51b815260206004820152601a60248201527f4141323520696e76616c6964206163636f756e74206e6f6e63650000000000006044820152606401610352565b50505050565b6004610b02606084018461203d565b90501015610b4a5760405162461bcd60e51b81526020600482015260156024820152744141323620696e76616c69642063616c6c6461746160581b6044820152606401610352565b6000610b59606084018461203d565b610b68916004916000916121a9565b610b71916121d3565b90506001600160e01b03198116610bca5760405162461bcd60e51b815260206004820152601e60248201527f4141323720696e76616c69642066756e6374696f6e2073656c6563746f7200006044820152606401610352565b60fe5460e01b6001600160e01b03199081169082161480610c04575060fe546001600160e01b031982811664010000000090920460e01b16145b610c505760405162461bcd60e51b815260206004820152601e60248201527f4141323720696e76616c69642066756e6374696f6e2073656c6563746f7200006044820152606401610352565b60fe5460e01b6001600160e01b031990811690821603610d0b576000610c81610c7c606086018661203d565b6114a2565b9050826001600160a01b0316816001600160a01b03161480610cbd575060ff546001600160a01b03821660009081526101006020526040902054145b610d095760405162461bcd60e51b815260206004820152601d60248201527f4141323820636f6e7472616374206e6f742077686974656c69737465640000006044820152606401610352565b505b60fe546001600160e01b031964010000000090910460e01b81169082160361042b576000610d44610d3f606086018661203d565b6114ca565b905060005b81518110156108ae576000828281518110610d6657610d66612006565b60200260200101519050846001600160a01b0316816001600160a01b03161480610daa575060ff546001600160a01b03821660009081526101006020526040902054145b610df65760405162461bcd60e51b815260206004820152601d60248201527f4141323820636f6e7472616374206e6f742077686974656c69737465640000006044820152606401610352565b5080610e0181612083565b915050610d49565b6001600160401b038116158015610e1f5750813b155b15610e2e57610e2e83836114e8565b816001600160a01b03811663fff35b7285610e48816108b5565b6040518363ffffffff1660e01b8152600401610e65929190612368565b6020604051808303816000875af1158015610e84573d6000803e3d6000fd5b505050506040513d601f19601f82011682018060405250810190610ea8919061238a565b610aed5760405162461bcd60e51b815260206004820152601460248201527320a0991a1039b4b3b730ba3ab9329032b93937b960611b6044820152606401610352565b6000610ef682611745565b90506000816001600160a01b031663f465c77e84610f1386611489565b60006040518463ffffffff1660e01b8152600401610f33939291906123ac565b6000604051808303816000875af1158015610f52573d6000803e3d6000fd5b505050506040513d6000823e601f3d908101601f19168201604052610f7a91908101906123f5565b915050600080610f8983611876565b90925090506001600160a01b03821615610fdc5760405162461bcd60e51b815260206004820152601460248201527320a0999a1039b4b3b730ba3ab9329032b93937b960611b6044820152606401610352565b80156108ae5760405162461bcd60e51b815260206004820152602160248201527f41413332207061796d61737465722065787069726564206f72206e6f742064756044820152606560f81b6064820152608401610352565b600080846001600160a01b031684846040516110509190612475565b60006040518083038185875af1925050503d806000811461108d576040519150601f19603f3d011682016040523d82523d6000602084013e611092565b606091505b5091509150816108ae57805160208201fd5b60018055565b7f4910fdfa16fed3260ed0e7147f7cc6da11a60208b5b9406d12a635614ffd91435460ff16156110dd5761042b836118c9565b826001600160a01b03166352d1902d6040518163ffffffff1660e01b8152600401602060405180830381865afa925050508015611137575060408051601f3d908101601f19168201909252611134918101906120aa565b60015b61119a5760405162461bcd60e51b815260206004820152602e60248201527f45524331393637557067726164653a206e657720696d706c656d656e7461746960448201526d6f6e206973206e6f74205555505360901b6064820152608401610352565b6000805160206129e183398151915281146112095760405162461bcd60e51b815260206004820152602960248201527f45524331393637557067726164653a20756e737570706f727465642070726f786044820152681a58589b195555525160ba1b6064820152608401610352565b5061042b838383611965565b606580546001600160a01b038381166001600160a01b0319831681179093556040519116919082907f8be0079c531659141344cd1fd0a4f28419497f9722a3daafe3b4186f6b6457e090600090a35050565b600054610100900460ff1661128e5760405162461bcd60e51b815260040161035290612487565b6107c961198a565b600054610100900460ff166112bd5760405162461bcd60e51b815260040161035290612487565b6107c96119ba565b600054610100900460ff16158080156112e55750600054600160ff909116105b806112ff5750303b1580156112ff575060005460ff166001145b61131b5760405162461bcd60e51b81526004016103529061215b565b6000805460ff19166001179055801561133e576000805461ff0019166101001790555b600060ff5561134d83836119e1565b801561042b576000805461ff0019169055604051600181527f7f26b83ff96e1f2b6a682f133852f6798a09c465da95921460cefb38474024989060200160405180910390a1505050565b6113a082610963565b60fc80546001600160a01b0319166001600160a01b0383161790556040516113c790611cbd565b604051809103906000f0801580156113e3573d6000803e3d6000fd5b5060fb80546001600160a01b0319166001600160a01b0392909216919091179055604080518082018252601e81527f6578656375746528616464726573732c75696e743235362c627974657329000060209182015260fe805463ffffffff191663b61d27f61790558151606081019092526029808352906129b8908301398051906020012060fe60046101000a81548163ffffffff021916908360e01c02179055505050565b6000611494826119eb565b805190602001209050919050565b6000806114b283600481876121a9565b8101906114bf91906124d2565b509095945050505050565b606060006114db83600481876121a9565b8101906114bf9190612632565b3660006114f8604085018561203d565b909250905060148110156115465760405162461bcd60e51b81526020600482015260156024820152744141313720696e76616c696420696e6974436f646560581b6044820152606401610352565b600061155560148284866121a9565b61155e9161270d565b60601c9050803b6115c05760405162461bcd60e51b815260206004820152602660248201527f4141313620696e76616c696420666163746f7279206f7220646f6573206e6f7460448201526508195e1a5cdd60d21b6064820152608401610352565b60fb54604051632b870d1b60e11b81526000916001600160a01b03169063570e1a36906115f39087908790600401612740565b6020604051808303816000875af1158015611612573d6000803e3d6000fd5b505050506040513d601f19601f820116820180604052508101906116369190612754565b90506001600160a01b03851661168e5760405162461bcd60e51b815260206004820152601b60248201527f4141313320696e6974436f6465206661696c6564206f72204f4f4700000000006044820152606401610352565b806001600160a01b0316856001600160a01b0316146116ef5760405162461bcd60e51b815260206004820181905260248201527f4141313420696e6974436f6465206d7573742072657475726e2073656e6465726044820152606401610352565b803b61173d5760405162461bcd60e51b815260206004820181905260248201527f4141313520696e6974436f6465206d757374206372656174652073656e6465726044820152606401610352565b505050505050565b6000368161175761012085018561203d565b909250905060148110156117ad5760405162461bcd60e51b815260206004820152601b60248201527f4141333620696e76616c6964207061796d6173746572206461746100000000006044820152606401610352565b60006117bc60148284866121a9565b6117c59161270d565b60601c9050803b6118185760405162461bcd60e51b815260206004820152601b60248201527f41413330207061796d6173746572206e6f74206465706c6f79656400000000006044820152606401610352565b60fc546001600160a01b0382811691161461186e5760405162461bcd60e51b815260206004820152601660248201527520a0999a9034b73b30b634b2103830bcb6b0b9ba32b960511b6044820152606401610352565b949350505050565b6000808260000361188c57506000928392509050565b600061189784611abe565b9050806040015165ffffffffffff164211806118be5750806020015165ffffffffffff1642105b905194909350915050565b6001600160a01b0381163b6119365760405162461bcd60e51b815260206004820152602d60248201527f455243313936373a206e657720696d706c656d656e746174696f6e206973206e60448201526c1bdd08184818dbdb9d1c9858dd609a1b6064820152608401610352565b6000805160206129e183398151915280546001600160a01b0319166001600160a01b0392909216919091179055565b61196e83611b2f565b60008251118061197b5750805b1561042b57610aed8383611b6f565b600054610100900460ff166119b15760405162461bcd60e51b815260040161035290612487565b6107c933611215565b600054610100900460ff166110a45760405162461bcd60e51b815260040161035290612487565b6107008282610430565b6060813560208301356000611a0b611a06604087018761203d565b611b94565b90506000611a1f611a06606088018861203d565b9050608086013560a087013560c088013560e08901356101008a01356000611a4e611a066101208e018e61203d565b604080516001600160a01b039c909c1660208d01528b81019a909a5260608b019890985250608089019590955260a088019390935260c087019190915260e08601526101008501526101208401526101408084019190915281518084039091018152610160909201905292915050565b60408051606081018252600080825260208201819052918101919091528160a081901c65ffffffffffff8116600003611afa575065ffffffffffff5b604080516060810182526001600160a01b03909316835260d09490941c602083015265ffffffffffff16928101929092525090565b611b38816118c9565b6040516001600160a01b038216907fbc7cd75a20ee27fd9adebab32041f755214dbc6bffa90cc0225b39da2e5c2d3b90600090a250565b60606105518383604051806060016040528060278152602001612a0160279139611ba7565b6000604051828085833790209392505050565b6060600080856001600160a01b031685604051611bc49190612475565b600060405180830381855af49150503d8060008114611bff576040519150601f19603f3d011682016040523d82523d6000602084013e611c04565b606091505b5091509150611c1586838387611c1f565b9695505050505050565b60608315611c8e578251600003611c87576001600160a01b0385163b611c875760405162461bcd60e51b815260206004820152601d60248201527f416464726573733a2063616c6c20746f206e6f6e2d636f6e74726163740000006044820152606401610352565b508161186e565b61186e8383815115611ca35781518083602001fd5b8060405162461bcd60e51b81526004016103529190612771565b610213806127a583390190565b80356001600160c01b0381168114611ce157600080fd5b919050565b600060208284031215611cf857600080fd5b61055182611cca565b6001600160a01b03811681146102ef57600080fd5b8035611ce181611d01565b60008060408385031215611d3457600080fd5b8235611d3f81611d01565b9150611d4d60208401611cca565b90509250929050565b60008083601f840112611d6857600080fd5b5081356001600160401b03811115611d7f57600080fd5b6020830191508360208260051b8501011115611d9a57600080fd5b9250929050565b600080600060408486031215611db657600080fd5b83356001600160401b03811115611dcc57600080fd5b611dd886828701611d56565b9094509250506020840135611dec81611d01565b809150509250925092565b60008060208385031215611e0a57600080fd5b82356001600160401b03811115611e2057600080fd5b611e2c85828601611d56565b90969095509350505050565b600060208284031215611e4a57600080fd5b813561055181611d01565b634e487b7160e01b600052604160045260246000fd5b604051601f8201601f191681016001600160401b0381118282101715611e9357611e93611e55565b604052919050565b60006001600160401b03821115611eb457611eb4611e55565b50601f01601f191660200190565b600082601f830112611ed357600080fd5b8135611ee6611ee182611e9b565b611e6b565b818152846020838601011115611efb57600080fd5b816020850160208301376000918101602001919091529392505050565b60008060408385031215611f2b57600080fd5b8235611f3681611d01565b915060208301356001600160401b03811115611f5157600080fd5b611f5d85828601611ec2565b9150509250929050565b60008060008060608587031215611f7d57600080fd5b8435611f8881611d01565b93506020850135611f9881611d01565b925060408501356001600160401b03811115611fb357600080fd5b611fbf87828801611d56565b95989497509550505050565b600060208284031215611fdd57600080fd5b81356001600160401b03811115611ff357600080fd5b8201610160818503121561055157600080fd5b634e487b7160e01b600052603260045260246000fd5b6000823561015e1983360301811261203357600080fd5b9190910192915050565b6000808335601e1984360301811261205457600080fd5b8301803591506001600160401b0382111561206e57600080fd5b602001915036819003821315611d9a57600080fd5b6000600182016120a357634e487b7160e01b600052601160045260246000fd5b5060010190565b6000602082840312156120bc57600080fd5b5051919050565b6020808252602c908201527f46756e6374696f6e206d7573742062652063616c6c6564207468726f7567682060408201526b19195b1959d85d1958d85b1b60a21b606082015260800190565b6020808252602c908201527f46756e6374696f6e206d7573742062652063616c6c6564207468726f7567682060408201526b6163746976652070726f787960a01b606082015260800190565b6020808252602e908201527f496e697469616c697a61626c653a20636f6e747261637420697320616c72656160408201526d191e481a5b9a5d1a585b1a5e995960921b606082015260800190565b600080858511156121b957600080fd5b838611156121c657600080fd5b5050820193919092039150565b6001600160e01b031981358181169160048510156121fb5780818660040360031b1b83161692505b505092915050565b6000808335601e1984360301811261221a57600080fd5b83016020810192503590506001600160401b0381111561223957600080fd5b803603821315611d9a57600080fd5b81835281816020850137506000828201602090810191909152601f909101601f19169091010190565b60006101606122908461228385611d16565b6001600160a01b03169052565b602083013560208501526122a76040840184612203565b8260408701526122ba8387018284612248565b925050506122cb6060840184612203565b85830360608701526122de838284612248565b925050506080830135608085015260a083013560a085015260c083013560c085015260e083013560e085015261010080840135818601525061012061232581850185612203565b86840383880152612337848284612248565b935050505061014061234b81850185612203565b8684038388015261235d848284612248565b979650505050505050565b60408152600061237b6040830185612271565b90508260208301529392505050565b60006020828403121561239c57600080fd5b8151801515811461055157600080fd5b6060815260006123bf6060830186612271565b60208301949094525060400152919050565b60005b838110156123ec5781810151838201526020016123d4565b50506000910152565b6000806040838503121561240857600080fd5b82516001600160401b0381111561241e57600080fd5b8301601f8101851361242f57600080fd5b805161243d611ee182611e9b565b81815286602083850101111561245257600080fd5b6124638260208301602086016123d1565b60209590950151949694955050505050565b600082516120338184602087016123d1565b6020808252602b908201527f496e697469616c697a61626c653a20636f6e7472616374206973206e6f74206960408201526a6e697469616c697a696e6760a81b606082015260800190565b6000806000606084860312156124e757600080fd5b83356124f281611d01565b92506020840135915060408401356001600160401b0381111561251457600080fd5b61252086828701611ec2565b9150509250925092565b60006001600160401b0382111561254357612543611e55565b5060051b60200190565b600082601f83011261255e57600080fd5b8135602061256e611ee18361252a565b82815260059290921b8401810191818101908684111561258d57600080fd5b8286015b848110156125a85780358352918301918301612591565b509695505050505050565b600082601f8301126125c457600080fd5b813560206125d4611ee18361252a565b82815260059290921b840181019181810190868411156125f357600080fd5b8286015b848110156125a85780356001600160401b038111156126165760008081fd5b6126248986838b0101611ec2565b8452509183019183016125f7565b60008060006060848603121561264757600080fd5b83356001600160401b038082111561265e57600080fd5b818601915086601f83011261267257600080fd5b81356020612682611ee18361252a565b82815260059290921b8401810191818101908a8411156126a157600080fd5b948201945b838610156126c85785356126b981611d01565b825294820194908201906126a6565b975050870135925050808211156126de57600080fd5b6126ea8783880161254d565b9350604086013591508082111561270057600080fd5b50612520868287016125b3565b6bffffffffffffffffffffffff1981358181169160148510156121fb5760149490940360031b84901b1690921692915050565b60208152600061186e602083018486612248565b60006020828403121561276657600080fd5b815161055181611d01565b60208152600082518060208401526127908160408501602087016123d1565b601f01601f1916919091016040019291505056fe608060405234801561001057600080fd5b506101f3806100206000396000f3fe608060405234801561001057600080fd5b506004361061002b5760003560e01c8063570e1a3614610030575b600080fd5b61004361003e3660046100ec565b61005f565b6040516001600160a01b03909116815260200160405180910390f35b60008061006f601482858761015e565b61007891610188565b60601c9050600061008c846014818861015e565b8080601f016020809104026020016040519081016040528093929190818152602001838380828437600092018290525084519495509360209350849250905082850182875af190506000519350806100e357600093505b50505092915050565b600080602083850312156100ff57600080fd5b823567ffffffffffffffff8082111561011757600080fd5b818501915085601f83011261012b57600080fd5b81358181111561013a57600080fd5b86602082850101111561014c57600080fd5b60209290920196919550909350505050565b6000808585111561016e57600080fd5b8386111561017b57600080fd5b5050820193919092039150565b6bffffffffffffffffffffffff1981358181169160148510156101b55780818660140360031b1b83161692505b50509291505056fea2646970667358221220ae47150d632594656fe259a0b1e27c8172db3a89a4ab59072d0ae47d8b421b2264736f6c6343000814003365786563757465426174636828616464726573735b5d2c75696e743235365b5d2c62797465735b5d29360894a13ba1a3210667c828492db98dca3e2076cc3735a920a3ca505d382bbc416464726573733a206c6f772d6c6576656c2064656c65676174652063616c6c206661696c6564a2646970667358221220f8bac13d1a3e845afc914638c5702f751d539c72212edb7f59ec5852f6582b4c64736f6c63430008140033",
  "linkReferences": {},
  "deployedLinkReferences": {}
}